:1000000071C000008EC000008CC000008AC00000DB
:1000100088C0000041C2000006C20000B3C4000056
:10002000E5C40000F3C300007CC000002EC1000046
:1000300078C0000076C0000074C0000072C00000EC
:1000400070C000006EC000006CC000006AC00000FC
:1000500068C0000066C0000064C0000062C000000C
:1000600060C000005EC000005CC000005AC000001C
:1000700058C0000056C0000054C0000052C000002C
:1000800050C000004EC000004CC000001FC4000063
:1000900048C0000046C0000044C0000042C000004C
:1000A00040C000003EC000003CC000003AC000005C
:1000B00038C0000002C2000034C0000032C000009E
:1000C00030C000002EC000008FC200002AC0000017
:1000D00028C0000026C0000024C0000022C000008C
:1000E00020C0000011241FBECFEFD1E2DEBFCDBF84
:1000F00000E00CBF12E0A0E0B2E0EAE6FAE000E0C7
:100100000BBF02C007900D92A631B107D9F722E0CC
:10011000A6E1B2E001C01D92A832B207E1F799D47E
:10012000A2C46ECFB0912202B0FF19C020E050915E
:100130002602251780F030912C0036FF0BC020934B
:100140002202AED340E0A0911E024A1708F00895A3
:1001500047C3089508955A95509326020895089527
:1001600080956095862B80FF06C080910B01806C86
:1001700080930B01089580910B0180688F7B8093A1
:100180000B010895F894E8E6F0E0808184608083B4
:10019000EDE6F0E08081886F8083EAE0F1E0808125
:1001A0008C6E8083E7E0F1E08081877080837894B3
:1001B0000895892B09F448C0672B09F45BC0452BCF
:1001C00009F451C010921B0210921A0281E090E0D3
:1001D000909319028093180210921702109216023F
:1001E00080911A0290911B02892B31F0EBE0F1E033
:1001F00080818062808305C0EBE0F1E080818F7DAB
:1002000080838091180290911902892B31F0EBE0E4
:10021000F1E080818860808305C0EBE0F1E08081BF
:10022000877F80838091160290911702892B31F08D
:10023000EBE0F1E08081846080830895EBE0F1E001
:1002400080818B7F8083089581E090E090931B02F2
:1002500080931A02909319028093180290931702C8
:1002600080931602BDCF81E090E090931B028093B3
:100270001A02ACCF81E090E090931B0280931A02A7
:100280001092190210921802ABCF1F920F920FB664
:100290000F9211240BB60F920F931F932F933F933E
:1002A0004F935F936F937F938F939F93AF93BF937E
:1002B000CF93EF93FF93E7E0F1E0C08180818770F7
:1002C0008083E09106012E2F332727FD3095832F61
:1002D000881F8827881F90E020910802309109022A
:1002E00082179307A1F081E090E0232B11F080E0CA
:1002F00090E0909309028093080240910602509189
:100300000702609104027091050253DF64C0E6FBAE
:10031000662760F970E020910402309105026217AF
:10032000730781F061E070E0232B11F060E070E072
:1003300070930502609304024091060250910702F7
:1003400038DF49C02091060230910702E5FB4427BF
:1003500040F950E04217530761F041E050E0232B91
:1003600011F040E050E0509307024093060221DF75
:1003700032C0E4FBAA27A0F9B0E02091020230913C
:100380000302A217B30781F081E090E0232B11F064
:1003900080E090E09093030280930202609100025B
:1003A00070910102DDDE17C0809100029091010280
:1003B000E3FB002700F910E00817190761F061E07E
:1003C00070E0892B11F060E070E07093010260939F
:1003D0000002CD01C5DEC0930701FF91EF91CF91DF
:1003E000BF91AF919F918F917F916F915F914F914D
:1003F0003F912F911F910F910F900BBE0F900FBE49
:100400000F901F9018952C9A08952C980895EBE062
:10041000F1E08081816080830895EBE0F1E08081EC
:100420008E7F808308951F920F920FB60F92112432
:100430000BB60F922F933F934F935F936F937F93DE
:100440008F939F93AF93BF93EF93FF93DEDF81E092
:100450008093A1008093720080911E0290911F02F0
:10046000019690931F0280931E0210921502109223
:100470001402FF91EF91BF91AF919F918F917F9166
:100480006F915F914F913F912F910F900BBE0F9005
:100490000FBE0F901F9018951F920F920FB60F92DC
:1004A00011248F9381E08093A100809372008F913B
:1004B0000F900FBE0F901F9018951F920F920FB6BE
:1004C0000F9211240BB60F922F933F934F935F938C
:1004D0006F937F938F939F93AF93BF93EF93FF930C
:1004E00080911002909111020197909311028093D4
:1004F00010028DB38F7C8DBB809110029091110200
:10050000181619069CF18091120290911302069719
:100510006CF58AE090E090931102809310021092A3
:10052000720080911202909113020196909313022F
:10053000809312028091120290911302059771F438
:10054000109213021092120260DF80E28CBBEAE686
:10055000F0E080818B608083ED9A08C080E18CBBE5
:10056000EAE6F0E080818B608083EC9AFF91EF9166
:10057000BF91AF919F918F917F916F915F914F91BB
:100580003F912F910F900BBE0F900FBE0F901F90B9
:100590001895659B03C037DF6599FDCF659905C048
:1005A00034DF10921302109212020895E8E6F0E090
:1005B00080818160808388E080936B000895F89447
:1005C00080EF84B98DB18E608DB9EAE0F1E0808171
:1005D00081608083DEDFEADFEAE6F0E080818B6025
:1005E0008083EC9A789408951F920F920FB60F9221
:1005F00011248F939F93AF93BF9380911E0290918C
:100600001F02892BF1F580910A0290910B02A091B3
:100610000C02B0910D020197A109B10980930A0261
:1006200090930B02A0930C02B0930D024497A10586
:10063000B10509F4299880910A0290910B02A091CA
:100640000C02B0910D020197A105B10509F4299A98
:1006500080910A0290910B02A0910C02B0910D02C0
:10066000892B8A2B8B2B31F585E190E0A0E0B0E05F
:1006700080930A0290930B02A0930C02B0930D0298
:1006800019C080910E0290910F02019790930F0272
:1006900080930E02019709F4299880910E0290919F
:1006A0000F02892B39F4299A82E090E090930F028F
:1006B00080930E02BF91AF919F918F910F900FBECB
:1006C0000F901F901895F894219A83E08093210150
:1006D00081E08093730078940895109280001092C6
:1006E000810010926F001092850010928400109289
:1006F00089001092880010928B0010928A0010924C
:100700008D0010928C001092910010927100109246
:100710009500109294008FEF8CBB10926A001DBA66
:100720001092680010926B0010926D0014B81DB802
:100730001092070110920A011EB815B81092080114
:1007400010920B010895F894259A699AE0E8F0E078
:10075000808181688083E1E8F0E080818B60808324
:1007600010928900109288001092850010928400E7
:1007700078940895F89484B1806C84B9E0E8F0E04E
:10078000808189628083E1E8F0E080818B608083F2
:1007900010928B0010928A0010928D0010928C00A3
:1007A000109285001092840078940895F89481E066
:1007B00080939100809371001092950010929400A4
:1007C000789408959093890080938800719A089591
:1007D00071981092800010928900109288000895FC
:1007E00080E590E090938B0080938A0010928D00BA
:1007F00010928C00089510928B0010928A0084E66B
:1008000090E090938D0080938C0008951F920F923A
:100810000FB60F9211240BB60F922F933F934F9365
:100820005F936F937F938F939F93AF93BF93EF9358
:10083000FF938091140290911502019719F4E3DD62
:10084000E6DD0CC080911C0290911D02892B31F4D1
:1008500081E090E090931D0280931C028BDFCBDF40
:1008600072DF84E690E0AEDFFF91EF91BF91AF9130
:100870009F918F917F916F915F914F913F912F91B8
:100880000F900BBE0F900FBE0F901F9018951092F7
:100890008B0010928A0010928D0010928C000895A7
:1008A00080E48CBBEE9AEAE6F0E08081806380838E
:1008B0000895EE98089580E88CBBEF9AEAE6F0E0A0
:1008C0008081806C80830895EF9808951F920F9225
:1008D0000FB60F9211240BB60F922F933F934F93A5
:1008E0005F936F937F938F939F93AF93BF93EF9398
:1008F000FF9318DC8091200290912102019779F5F5
:1009000080912402909125021816190634F401975B
:10091000909325028093240222C0679B20C080917F
:100920001E0290911F021816190634F40197909335
:100930001F0280931E025FDF80911E0290911F02B2
:10094000892B41F4A4DF44DF81E090E0909315020D
:10095000809314021092210210922002ACDFFF91CA
:10096000EF91BF91AF919F918F917F916F915F9127
:100970004F913F912F910F900BBE0F900FBE0F9094
:100980001F9018951F920F920FB60F9211240BB65D
:100990000F922F933F934F935F936F937F938F9318
:1009A0009F93AF93BF93EF93FF9383E090E0909377
:1009B00027028093260281E090E0909323028093A7
:1009C000220277DF2ADDFF91EF91BF91AF919F91D6
:1009D0008F917F916F915F914F913F912F910F90E8
:1009E0000BBE0F900FBE0F901F9018951F920F9285
:1009F0000FB60F9211240BB60F922F933F934F9384
:100A00005F936F937F938F939F93AF93BF93EF9376
:100A1000FF9383E090E0909325028093240281E08D
:100A200090E090932102809320024EDFFF91EF919E
:100A3000BF91AF919F918F917F916F915F914F91F6
:100A40003F912F910F900BBE0F900FBE0F901F90F4
:100A50001895F89442DEAADE23DF2DDF93DB33DE28
:0A0A6000AEDD7894FFCFF894FFCFCD
:100A6A000100010001000100010015000000020060
:060A7A000A00010001006A
:00000001FF
